S01700004763634170706C69636174696F6E352E7372656357
S11300000C942A000C94D2030C9447000C944700DF
S11300100C9447000C9447000C9447000C94470040
S11300200C9447000C9447000C9447000C94470030
S11300300C9447000C9447000C9447000C94470020
S11300400C9447000C9447000C9447000C94470010
S11300500C94470011241FBECFE5D8E0DEBFCDBF0E
S113006010E0A0E6B0E0E0EEF7E002C005900D92EB
S1130070AA3FB107D9F721E0AAEFB0E001C01D9271
S1130080AE30B207E1F70E941D030C94EE030C940A
S11300900000E199FECF9FBB8EBB6DBBE29AE19A53
S11300A00895E199FECF9FBB8EBBE09A8DB308956E
S11300B0EF92FF921F93CF93DF93A4E6B0E00F2E4D
S11300C0FAEFEF2EF0E0FF2EF02D28EA30E011E0F9
S11300D0EC91E43010F5F0E0E05AFF4FE081F0E0FD
S11300E0AF01EA016A9112967C91129711969C9144
S11300F011979723962B98833297908113968C911E
S113010013978723892B8083F70111937F0114961A
S1130110A217B307E9F680E001C081E0DF91CF9137
S11301201F91FF90EF9008958131E0F590E0FC017C
S1130130EE0FFF1FEE0FFF1FEC59FF4F22812F3FE1
S113014099F5FC01E650FF4F2081213079F56111CA
S113015014C0880F991F880F991FFC01EC59FF4F99
S1130160A081B0E0A05ABF4FAC91B0E09C918181D6
S1130170809589238C9380E008956F3FC9F4880F9C
S1130180991F880F991FFC01EC59FF4FA081B0E023
S1130190A05ABF4FAC91B0E09C918181892B8C9384
S11301A080E0089581E0089581E0089581E0089554
S11301B080E00895813130F590E0FC01EE0FFF1FDF
S11301C0EE0FFF1FEC59FF4F228121111DC0FC01CE
S11301D0E650FF4F20812130C9F4880F991F880F02
S11301E0991FFC01EC59FF4FA081B0E0A05ABF4F0A
S11301F0AC91B0E012978C9191818923FB018083AB
S113020080E0089581E0089581E0089581E00895F3
S11302108BB780648BBF8FEF85BF0895CF92DF9239
S1130220EF92FF920F931F93CF93E12CF12C6FEF7A
S113023080E00E9494006FEF81E00E9494006FEFD1
S113024082E00E9494006FEF83E00E94940060E0DB
S11302508E2D0E94940004E010E00F2EF5E0CF2EC6
S1130260D12CF02D05C08FEFC81AD80A0F5F1F4F8D
S1130270C02F6DE071E0802F0E94DA0080910D01A3
S1130280811151C06DE071E08C2F0E94DA008091E1
S11302900D018823B9F381E0E816F104E9F024F4B0
S11302A0E114F10451F03FC082E0E816F10409F1D1
S11302B083E0E816F10451F136C00430110509F465
S11302C041C00530110509F43FC006301105F1F1B4
S11302D00730110541F53CC004301105D9F1053052
S11302E01105D1F106301105C9F107301105D9F412
S11302F037C004301105B1F105301105A9F10630FC
S11303001105A1F10730110571F432C00430110553
S113031089F10530110581F10630110579F10730B5
S1130320110581F52DC088E0C816D1040CF49BCFCB
S11303308FEFE81AF80A84E0E816F10409F077CFA1
S113034086E426C087E324C088E322C089E320C072
S11303508FE21EC084E31CC085E31AC086E318C084
S11303608AE216C081E314C082E312C083E310C0A2
S11303708DE20EC08FE30CC080E30AC08DE308C099
S11303808BE206C088E0C816D1040CF46CCF86E476
S1130390CF911F910F91FF90EF90DF90CF90089530
S11303A0CF93DF9300D000D0CDB7DEB719821A8285
S11303B01B821C82880F991F880F991FA0E0B0E050
S11303C049815A816B817C81481759076A077B07E9
S11303D0ACF449815A816B817C814F5F5F4F6F4FD1
S11303E07F4F49835A836B837C8349815A816B8114
S11303F07C81481759076A077B075CF30F900F90BD
S11304000F900F90DF91CF910895CF92DF92EF92EA
S1130410FF920F931F93CF93DF93C82F60E088E080
S11304200E94940060E089E00E949400DC2FD29541
S1130430DF7008EA10E00F2EFCEAEF2EF0E0FF2E4A
S1130440F02D68016D2F61706195D695F60181914B
S11304506F010E949400EC14FD04A1F76FEF8AE091
S11304600E94940084E690E00E94D00160E08AE05B
S11304700E949400CF706C2F61706195C695F8014D
S113048081918F010E9494000E151F05A1F76FEF53
S11304908AE00E94940084E690E00E94D00160E02B
S11304A08AE00E94940080ED97E00E94D001DF91E1
S11304B0CF911F910F91FF90EF90DF90CF9008950F
S11304C020910B0130910C012130310561F4672B2F
S11304D029F480580E94050280E0089580540E9407
S11304E0050280E0089581E0089580910B019091C8
S11304F00C01019729F481E00E94050280E008952F
S113050081E0089588E99AE30E94D00183E30E9480
S1130510050282E30E94050288E20E9405028CE043
S11305200E94050281E00E94050281E090E0909320
S11305300C0180930B010895CF92DF92EF92FF920A
S11305400F931F93CF93DF93C82F6FEF88E00E9420
S1130550940060E089E00E949400DC2FD295DF7063
S113056008EA10E00F2EFCEAEF2EF0E0FF2EF02D4B
S113057068016D2F61706195D695F60181916F01C7
S11305800E949400EC14FD04A1F76FEF8AE00E942E
S1130590940084E690E00E94D00160E08AE00E942A
S11305A09400CF706C2F61706195C695F8018191AC
S11305B08F010E9494000E151F05A1F76FEF8AE0CA
S11305C00E94940084E690E00E94D00160E08AE0FA
S11305D00E9494008AE090E00E94D001DF91CF91C4
S11305E01F910F91FF90EF90DF90CF90089520918D
S11305F00B0130910C012130310521F40E949C0241
S113060080E0089581E00895CF93DF93EC01809119
S11306100B0190910C01019751F48881882349F0D2
S113062021960E949C0289918111FBCF03C081E035
S113063001C080E0DF91CF910895CF93DF9300D084
S113064000D0CDB7DEB70E9458000E9482020E94FB
S11306500801789460E08AE090E00E94490080E319
S1130660898381E38A8382E38B8383E38C83CE0152
S113067001967C0100E010E0F70161917F01C8015F
S11306800E9449000F5F1F4F04301105A9F760E075
S11306908FE00E94940060E070E080E090E00E94AF
S11306A060028CEA90E00E94040300E0D12CA12CAB
S11306B0BB24B394C12C04C00C2D02C0D82E0C2D25
S11306C08AE090E00E945100182F833008F05AC04D
S11306D00E940E01082F863479F3ED2CF12C61E091
S11306E070E0C7010E946002802F0E94F702E1E0DF
S11306F0F0E0EC0FFD1FEE0DFF1D8081081301C01B
S1130700A39481E08D0D0D33C9F68530A9F4AD10A5
S113071013C00E94750260E070E080E090E00E94E7
S113072060028BEB90E00E9404036FEF8FE00E9465
S11307309400DA2C0C2DC4CF0E94750260E070E0A6
S113074080E090E00E9460028AEC90E00E94040342
S113075061E0610F8AE090E00E94490080E094EB40
S11307600E94D0010E94750260E070E080E090E099
S11307700E9460028CEA90E00E9404030C2DDC2CA1
S1130780A12C9ECF01119CCF0E94750260E070E005
S113079080E090E00E94600289ED90E00E940403F2
S11307A00B2D8ECF1F920F920FB60F9211240E9421
S11307B0750260E070E080E090E00E9460028AEEE2
S11307C090E00E94040360E08AE090E00E94490007
S11307D080E094EB0E94D0010E941D03F894FFCFA7
S11307E03B3835320001FFFF0002FFFF0004FFFF2A
S11307F00008FFFF001000FF002000FF004000FF82
S1130800008000FF0101FFFF0102FFFF0104FFFF61
S11308100108FFFF0110FFFF0120FFFF0140FFFF60
S11308200201FFFF030400FF0B0C0D0E456E7465FF
S1130830722050617373776F7264005269676874D1
S11308402050617373776F72640057726F6E672004
S113085050617373776F726400426C6F636B65648D
S11308602050617373776F72640053797374656D8C
S10D0870205265736574656400008E
S9030000FC
